:020000040800F2
:100000008007002045010008D91F00087F1700085D
:10001000911F000833040008792500080000000043
:100020000000000000000000000000007321000834
:100030003504000800000000712100087521000847
:100040005F0100085F0100085F0100085F01000810
:100050005F0100085F0100085F0100085F01000800
:100060007D06000883060008890600085F01000875
:100070005F0100085F0100085F0100085F010008E0
:100080005F0100085F0100085F0100085F010008D0
:100090005F0100085F0100085F0100085F010008C0
:1000A0005F0100085F0100085F0100085F010008B0
:1000B0005F0100085F0100085F0100085F010008A0
:1000C0005F0100085F0100085F0100085F01000890
:1000D0005F0100085F0100085F0100086D2500084E
:1000E0005F0100085F0100085F0100085F01000870
:1000F0005F0100085F0100085F0100085F01000860
:100100005F0100085F0100085F0100085F0100084F
:100110005F0100085F0100085F0100085F0100083F
:100120005F0100085F0100085F0100085F0100082F
:10013000DFF80CD000F0FAF800480047792C0008EE
:10014000800700200648804706480047FEE7FEE794
:10015000FEE7FEE7FEE7FEE7FEE7FEE7FEE7FEE777
:10016000D721000831010008202A04DB203A21FAB7
:1001700002F00021704721FA02F3D040C2F12002C0
:10018000914008431946704740EA01039B0703D09A
:1001900009E008C9121F08C0042AFAD203E011F8C6
:1001A000013B00F8013B521EF9D27047D2B201E088
:1001B00000F8012B491EFBD270470022F6E710B56C
:1001C00013460A4604461946FFF7F0FF204610BDC5
:1001D00030B505462A460B4612F8010B13F8014BC1
:1001E00008B1A042F8D01CB1002802D06D1CF1E784
:1001F000284630BDCAB2401E10F8011F8A4202D004
:100200000029F9D100207047421C10F8011B002979
:10021000FBD1801A704710B5044600E0401C0378FB
:10022000002BFBD100E0401C521E04D311F8013B0F
:100230000370002BF7D100210170204610BD70B56E
:10024000064602F0CFF9046805460A22002130462E
:1002500000F033F82C6070BD2DE9F05F05460020FA
:1002600092469B4688460646814640241BE0284627
:10027000414647462246FFF777FF53465A46C01A83
:10028000914110D311461846224600F061F82D1A0C
:1002900067EB01084F4622460120002100F058F884
:1002A00017EB00094E41201EA4F10104DFDC484693
:1002B00031462A464346BDE8F09F2DE9F047914676
:1002C0000F4680460446002614F8015B2DB100F06D
:1002D0004FF80068405DC007F6D12B2D02D02D2DC0
:1002E00018D0641E4A463946204600F045F827B12A
:1002F0003968A14201D1C7F8008071054FF00204AE
:100300000BD54042002803DD02F06CF90460A00721
:10031000BDE8F08746F48066E4E70028F8DA02F0EA
:1003200061F904606FF00040F2E70000064C074DF1
:1003300006E0E06840F0010394E8070098471034B5
:10034000AC42F6D3FFF7F8FE282F0008482F00082C
:10035000202A04DB203A00FA02F100207047914085
:10036000C2F1200320FA03F31943904070470000C4
:10037000004870474C2E00082DE9F05F8246007857
:10038000002715468B460AF10104B946302801D0F2
:100390009DB113E014F8010B0127782803D05828E9
:1003A00001D045B10AE00DB1102D07D1002710256D
:1003B00014F8010B02E0082500E00A250026B046EB
:1003C0000EE005FB080005FB06F1012701EB1046D6
:1003D0001FFA80F8B6F5803F00D3B94614F8010B38
:1003E000294600F018F80028EBDABBF1000F05D021
:1003F0000FB1641E00E05446CBF80040B9F1000F85
:1004000006D002F0EFF802210160C81EBDE8F09F9F
:1004100048EA0640FAE73A2800D2303820F02002B5
:10042000412A01D3A2F13700884201D34FF0FF30B7
:100430007047FEE77047000010B580210348FFF7C2
:10044000BCFE03490020088010BD00000001002010
:100450001200002010B5044600F000F958B90AA1B6
:100460000B48FFF7B5FE30B13A21FFF7C3FE002875
:1004700000D0401C10BD052000F0C6F92046641EC7
:10048000A4B2E9D210BD00004950442C0000000085
:100490000001002010B586B0002002902848816934
:1004A00041F0040181618069264C00F00400049051
:1004B000012000900190032003906946204600F03F
:1004C000C9F900220121204600F0C5FAFA2000F007
:1004D0009BF901221146204600F0BDFA4FF4FA7450
:1004E000204600F091F9FFF7A7FF02E0204600F058
:1004F0008BF915A115A000F065F80028F6D102E0EF
:10050000204600F081F910A112A000F05BF800284D
:10051000F6D102E0204600F077F912A113A000F016
:1005200051F80028F6D102E0204600F06DF917A13D
:1005300018A000F047F80028F6D106B010BD000062
:1005400000100240000801404F4B000041540D0ACA
:100550000000000041542B43574D4F44453D310DA1
:100560000A000000474F54204950000041542B43DB
:10057000574A41503D2279697869222C223939390C
:100580003939393939220D0A00000000434F4E4EE7
:100590004543540041542B43495053544152543D18
:1005A00022544350222C226D717474732E6865633B
:1005B0006C6F7564732E636F6D222C313838330D78
:1005C0000A00000070B50E460546C824FFF71CFE61
:1005D00082B24FF0FF3329460B4801F07FF80EE05E
:1005E00000F03CF840B931460848FFF7F1FD18B17A
:1005F000FFF722FF002070BD0A2000F005F9641EFD
:10060000E4B2EDD2012070BDB8000020000100204E
:1006100030B5B3B00C460546FFF70EFF224609A1E0
:10062000684601F0BBFF0BA16846FFF7CBFF00282F
:1006300005D1431E22462946074801F04FF833B042
:1006400030BD000041542B43495053454E443D2595
:10065000640D0A003E000000B80000200648018832
:1006600031B14288914205D100210180084670478E
:10067000012070474180FBE712000020042000F0B9
:10068000DDB8082000F0DAB8102000F0D7B872B654
:10069000FEE710B590F821100022022905D00421B0
:1006A000816380F82020012010BD01680B6823F0D1
:1006B0000E030B6001680B6823F001030B6090F8D8
:1006C0004030C46B012101FA03F3636080F821100C
:1006D00080F82020104610BD2DE9F05F90F8211021
:1006E0000024022903D004218163012485E00168EC
:1006F0000A6822F00E020A6001680A6822F001020C
:100700000A603F4E3E4FB215DFF8F4C0DFF8F090BC
:10071000DFF8ECA0DFF8E8B0DFF8E4E00168783F4C
:1007200013011502ACF1640CA9F15009AAF13C0ABD
:10073000ABF1280BAEF1140E4FF48018B14227D95B
:10074000B9420ED0614512D049451DD0514518D04F
:10075000594518D0714501D1424615E0294EB142A4
:1007600001D1012210E0274E1436B14201D11022EE
:100770000AE0244E2836B14206D0224A3C32914249
:1007800001D11A4600E02A461E49091F0A602BE0E3
:10079000B94213D0614517D0494522D051451DD0EB
:1007A00059451DD0714501D142461AE0B14202D1EE
:1007B0004FF0807215E0134EB14201D1012210E0DA
:1007C000104E1436B14201D110220AE00D4E2836E7
:1007D000B14206D00B4A3C32914201D11A4600E0A8
:1007E0002A46074980394A60012180F821100021FA
:1007F00080F82010416B01B188472046BDE8F09F8A
:10080000800002400804024070B5044600F028F958
:100810000546601C02D004480078044400F020F92A
:10082000401BA042FAD370BD00000020042803D072
:10083000082801D100F0A4BF70470000044910B59A
:100840000A68024202D00860FFF7F0FF10BD000006
:10085000140401402DE9F84FDFF8C8910024A9F1F4
:10086000040B23460F2709F1040AABF1040ED1E073
:100870000125A54006EA0502AA4276D1DFF8A8C103
:100880004E68A6EB0C0866452BD00DDC032E34D049
:1008900005DC36B3012E19D0022E2FD11BE0112E0C
:1008A00016D0122E2AD119E0B8F5881F19D006DC0F
:1008B000B8F5803F15D0B8F5801F1FD111E0B8F50D
:1008C000001F0ED0B8F5041F18D10AE0CB6815E060
:1008D000CB681B1D12E0CB6808330FE0CB680C33EC
:1008E0000CE08B682BB1012B4FF0080303D045615E
:1008F00004E0042302E0056100E00023FF2A01D8A0
:10090000064601E000F104064FEA840501D9A5F18D
:100910002005D6F8008007FA05FC28EA0C0803FA3F
:1009200005F548EA0508C6F800804D68ED0070D569
:100930003E4DAE6946F00106AE61AD6924F0030696
:1009400005F0010500953A4D06EB050CDCF8085062
:10095000A607360F07FA06F825EA0805DFF8D4805F
:10096000404503D14FF0000825E052E0DFF8C88091
:10097000404502D14FF001081DE0DFF8C08040453E
:1009800002D14FF0020816E0DFF8B480404502D1F2
:100990004FF003080FE0DFF8AC80404502D14FF084
:1009A000040808E0DFF8A080404502D14FF00508B8
:1009B00001E04FF0060808FA06F848EA0508CCF806
:1009C00008804D68D9F80060ED024D4601D5164308
:1009D00000E096432E604D68DAF80060AD0255469F
:1009E00001D5164300E096432E604D68DBF80060A9
:1009F000AD035D4601D5164300E096432E604D6879
:100A0000DEF80060ED03754601D5164300E096431D
:100A10002E60641C0A681646E2407FF429AFBDE8E8
:100A2000F88F00000804014000001110001002407F
:100A30000000014000080140000C0140001001408E
:100A40000014014000180140001C0140806808406B
:100A500000D0012070470AB1016170470904FBE72B
:100A6000014880687047000000000020024881684B
:100A7000027811448160704700000020074810B5DB
:100A8000016841F010010160032000F075F80F20AB
:100A900000F006F800F024F8002010BD002002400D
:100AA00070B50D4D04464FF47A712878B1FBF0F023
:100AB0000A490968B1FBF0F000F0DCFA48B9102CE3
:100AC00007D200222146501E00F036F800206C604C
:100AD00070BD012070BD0000000000200C0000204F
:100AE0000C4808B5816941F001018161816901F01B
:100AF00001010091C16941F08051C161C06900F0FC
:100B0000805000900448416821F0E06141F080612C
:100B1000416008BD0010024000000140002809DBD0
:100B200000F01F02012191404009800000F1E02007
:100B3000C0F8001170470000F0B40E4B1B680C4663
:100B4000C3F30223C3F10705042D00D90425191DA1
:100B5000072901D2002300E0DB1E012606FA05F179
:100B6000491E214099409E40761E16403143F0BCFC
:100B700001F028BD0CED00E0064900F0070208680E
:100B80004FF6FF03184040EA0220034A1043086072
:100B9000704700000CED00E00000FA052DE9F04779
:100BA0000F46050061D0434E306800F00700B842A0
:100BB00009D2306820F0070038433060306800F018
:100BC0000700B84251D128683B4C810712D5400735
:100BD00003D5606840F4E06060602878000703D5C2
:100BE000606840F4605060606068A96820F0F000C0
:100BF000084360602878C00728D06868012810D0B2
:100C00002168022810D0890700292EDA616821F0B6
:100C1000030101436160FFF723FF804641F28839F9
:100C20000DE021688903EFE78901EDE7FFF718FF81
:100C3000A0EB0801494502D90320BDE8F0876068B0
:100C4000696800F00C00B0EB810FEFD1306800F064
:100C50000700B8420BD9306820F0070038433060F5
:100C6000306800F00700B84201D00120E5E728789D
:100C7000400705D56068E96820F4E06008436060DB
:100C80002878000706D56068296920F4605040EA9A
:100C9000C100606000F038F86168084AC1F30311D0
:100CA000515CC8400649086006480068FFF7F8FE36
:100CB0000020C2E70020024000100240B22D0008D0
:100CC0000C00002004000020044805490068496821
:100CD000044AC1F30221515CC84070470C00002057
:100CE00000100240C22D0008044805490068496808
:100CF000044AC1F3C221515CC84070470C00002077
:100D000000100240C22D00080E4A51680E4801F042
:100D10000C03042B11D0082B0FD10C48C1F38343D3
:100D2000C903C05C0AD55168084AC1F34041921E0C
:100D3000515C054A5043B0FBF1F070470449484309
:100D4000704700000010024000127A00A22D000837
:100D500000093D002DE9F84F040070D02078C04D07
:100D6000C00749D06868C0F38100012807D06868CF
:100D7000C0F38100022809D16868C00306D528683D
:100D8000800339D560680028E7D035E06068B0F5A9
:100D9000803F0BD010B1B0F5A02F11D0286820F4FF
:100DA00080302860286820F4802002E0286840F421
:100DB00080302860606890B1FFF752FE06460AE076
:100DC000286840F480202860F0E700BFFFF748FE65
:100DD000801B642873D828688003F7D50CE0FFF7E0
:100DE0003FFE064605E000BFFFF73AFE801B642881
:100DF000F0D828688003F7D420789A4E80074FF007
:100E000001094FF0000839D5686810F00C0F07D0C1
:100E10006868C0F38100022809D16868C00306D45D
:100E20002868800714D52069012808D110E02069BE
:100E3000B0B1C6F80090FFF713FE074605E00AE1DF
:100E4000FFF70EFEC01B0228C4D828688007F7D51C
:100E50002868616920F0F80040EAC10028600DE0D0
:100E6000C6F80080FFF7FCFD074604E0FFF7F8FD39
:100E7000C01B022823D828688007F7D420780007F1
:100E80002CD57948A169D9B1C0F80090FFF7E8FDE9
:100E9000074604E0FFF7E4FDC01B02280FD8686A8C
:100EA0008007F7D571484FF4FA510068B0FBF1F0B4
:100EB000009000BF0098411E0091FAD20EE080E041
:100EC000C0F80080FFF7CCFD074604E0FFF7C8FD3F
:100ED000C01B022875D8686A8007F7D420784007BD
:100EE00060D5E8690027C00008D4E86940F0805068
:100EF000E861E869012700F0805000905C480168D3
:100F0000C90513D40168834641F480710160FFF77D
:100F1000A7FD824606E000BFFFF7A2FDA0EB0A0096
:100F200064284ED8DBF80000C005F5D5E06801283C
:100F30000AD008B1052813D0286A20F001002862E1
:100F4000286A20F0040002E0286A40F001002862CC
:100F5000E06841F2883B98B1FFF782FD82460BE0E2
:100F6000286A40F004002862EEE700BFFFF778FD32
:100F7000A0EB0A0159455AD8286A8007F6D50CE03B
:100F8000FFF76EFD824605E0FFF76AFDA0EB0A0160
:100F900059454CD8286A8007F6D41FB1E86920F07B
:100FA0008050E861E06988B36968C1F38101022972
:100FB00044D00228C6F8608004D0FFF751FD0446F3
:100FC00038E034E0FFF74CFD074604E0FFF748FD4A
:100FD000C01B02282BD828688001F7D4206AB0F5FE
:100FE000803F05D16868A16820F40030084368603C
:100FF000D4E908010843696821F474110843686062
:10100000C6F86090FFF72CFD044606E025E000BF1F
:10101000FFF726FD001B022809D828688001F7D5B4
:101020001BE000BFFFF71CFD001B022802D90320B4
:10103000BDE8F88F28688001F4D40EE00128F7D0CD
:101040006868226A00F48031914204D1616A00F438
:101050007010884201D00120EAE70020E8E7000094
:101060000010024000004242800442420C00002076
:101070000070004010B5401EB0F1807F01D3012008
:1010800010BD4FF0E02460610F21601701F09AFA63
:101090000020A06107202061002010BD70B590F8ED
:1010A0003C20012A2CD0012480F83C40022280F808
:1010B0003D2003685A689D6822F070060A68324332
:1010C0005A60104B02689A420ED00F4B9A420BD0D6
:1010D000B2F1804F08D00D4B9A4205D00C4B9A428A
:1010E00002D00C4B9A4204D1496825F08003194381
:1010F000916080F83D40002180F83C10084670BDAA
:10110000022070BD002C014000340140000400406A
:1011100000080040000C004010B5040003D094F813
:101120003D0010B107E0012010BD002084F83C0014
:10113000204600F01FF8022084F83D00211D2068A1
:1011400001F050F8012084F8460084F83E0084F84D
:101150003F0084F8400084F8410084F8420084F89D
:10116000430084F8440084F8450084F83D000020E2
:1011700010BD000008B500680649884208D106483D
:10118000816941F400618161806900F40060009030
:1011900008BD0000002C01400010024090F83D10F6
:1011A000012901D001207047022180F83D1000681C
:1011B0000E4988420ED00E4988420BD0B0F1804FC4
:1011C00008D00C49884205D00B49884202D00B490F
:1011D000884204D1816801F00701062903D0016823
:1011E00041F001010160002070470000002C014027
:1011F000003401400004004000080040000C0040A2
:1012000070B5044690F83C000025012817D001264F
:1012100084F83C60022084F83D002068826822F057
:10122000770222F47F4282600868502838D00DDCB3
:1012300020284FD005DC90B3102811D14AE00220BD
:1012400070BD302846D040280AD13BE060282FD01E
:1012500070280DD0B0F5805F03D0B0F5005F12D0DC
:10126000012584F83D60002084F83C00284670BDCC
:10127000CB68D1E90121206801F002F8206881687B
:1012800041F0770109E0CB68D1E90121206800F045
:10129000F7FF2068816841F480418160E1E719E04F
:1012A000CA684968206800F0FDFF5021206806E008
:1012B000CA684968206801F006F86021206800F0DB
:1012C000E9FFCEE7CA684968206800F0EBFF4021DB
:1012D0002068F4E7226801461046F0E7704770473F
:1012E000F8B5016804460868CA684B6910F00F0F2A
:1012F0004FF0000559D003F0010602F49077374310
:1013000065D0C10705D0D10503D5616C41F001015D
:101310006164410705D5D90703D0616C41F0020132
:101320006164810705D5D90703D0616C41F00401E0
:101330006164010707D502F02001314303D0616CDD
:1013400041F008016164616C00293AD0800604D53F
:10135000900602D5204600F0F7FF20684069616CD6
:10136000C0F38010090700D460B3204600F0C5FF29
:1013700020684069400621D52068143050E8001FDD
:1013800021F0400140E80012002AF5D1E06BA8B13D
:101390006D494163E06BFFF79FF9002811D0E06BC6
:1013A000416B01B0BDE8F040084783060FD59306B6
:1013B0000DD52046BDE8F84000F0C6BF2046FFF737
:1013C0008EFFF8BD2046FFF78AFF6564F8BD266BE7
:1013D0002023012E7CD1C6067AD5D60678D508689A
:1013E0004868009048694FF00206400640D5E16B1E
:1013F000086840680004000CE8D0A28D8242E5D95C
:10140000E085886920282DD020680C3050E8001F26
:1014100021F4807140E80012002AF5D120681430D0
:1014200050E8001F21F0010140E80012002AF5D128
:101430002068143050E8001F21F0400140E80012FD
:10144000002AF5D184F84230256320680C3050E83A
:10145000001F21F0100140E80012002AF5D1E06BD6
:10146000FFF717F96663A08DE18D401A81B22AE07B
:10147000A08DE18D401A81B2E08D0028A6D0002910
:10148000A4D022680C3252E8000F20F4907042E899
:101490000007002FF5D12068143050E8002F22F00B
:1014A000010240E80027002FF5D184F8423025637F
:1014B00020680C3050E8002F22F0100240E8002392
:1014C000002BF5D166632046FFF708FFF8BDFFE764
:1014D00005062BD5150629D594F841002128F5D10C
:1014E000A068B0F5805F01D12069B0B1206A411CCD
:1014F0002162216800784860E08C401E0004000CE6
:10150000E084E3D12068C16821F08001C1602068D7
:10151000C16841F04001C160D8E7206A0088C0F38B
:1015200008004860206A801C2062E5E74006CDD5AF
:101530005006CBD5CA68204622F04002CA6084F823
:10154000413000F01BF9C1E7EB22000870B5040040
:1015500004D094F84100002510B106E0012070BDD0
:1015600084F84050204600F023F8242084F84100FD
:101570002068C16821F40051C160204600F046FF98
:101580002068016921F4904101612068416921F0DE
:101590002A0141612068C16841F40051C16065645D
:1015A000202084F8410084F842006563002070BD6B
:1015B00070B586B0002400940194029403940368EB
:1015C0002B482A4E022103220515B34221D18369FB
:1015D00043F480438361836903F480430493836904
:1015E00043F0040383618069224E00F004000490FC
:1015F0000802CDE90001039269463046FFF72AF957
:10160000CDE90054694630460294FFF723F906B04D
:1016100070BD194EB342FAD1C36943F48023C3614C
:10162000C36903F480230493836943F0080383614F
:101630008069CDE9005100F00800CDE903200F4D8D
:1016400069462846FFF706F9E814CDE90004694623
:1016500028460294FFF7FEF8002203212720FFF717
:101660006BFA2720FFF75AFAD1E700000038014053
:10167000001002400008014000480040000C0140FA
:1016800090F84230202B01D00220704721B11AB1CE
:101690000023036300F016BF0120704700680B4968
:1016A000884211D10A490A88802A01D300220A807F
:1016B0004368084A08881354401C80B208801118F7
:1016C00001220548FFF7DCBF7047000000480040DA
:1016D0001200002000010020B80000202DE9F8438E
:1016E000044690F84100984616460D46202802D040
:1016F0000220BDE8F88385B17EB10020606421201E
:1017000084F84100FFF7ACF9A6848146E684A0681E
:101710002027B0F5805F02D003E00120E9E72069CF
:1017200010B12E4600250EE000260CE08021204658
:1017300000F0E3FEA8B9C6B116F8010B21684860B5
:10174000E08C401EE084E08C4B464FF00002CDF868
:1017500000800028EAD14FF04001204600F0CDFE85
:1017600040B184F841700320C3E735F8020BC0F3A1
:101770000800E3E784F841700020BAE77047FEE70D
:1017800010B5012220210548FFF765F90022BDE8C8
:10179000104020210248FFF75EB90000000C014014
:1017A0000018014010B50446007B012802D12068D2
:1017B00001F03AFA002020606060A060207310BD44
:1017C0005FF0010200F07F030B70C00909D043F005
:1017D0008003521C01F8013B042AF3DD4FF0FF3077
:1017E0007047104670472DE9F04104460025006817
:1017F0000F462E4610B10220207315E00120207301
:10180000084601F08BFA2060002808D0C4E901677F
:1018100002E0206846556D1CA068A842F9D8BDE8D2
:10182000F081206846556D1CA068A842F9D8666012
:101830008842F4D22660F2E72DE9FF471746884632
:101840008146FEF7E1FC84B24046FEF7DDFC00264F
:10185000A01D01F063FA050025D0A11DFEF7ADFC27
:1018600012A02246016829608088A880494628463F
:10187000FEF7D1FC4046FEF7C7FC034600200DF101
:10188000040A012100908AE88300424629460A2082
:1018900000F048F900B10126284601F0C5F93046AC
:1018A00004B0BDE8F0870120FAE7000024637273FA
:1018B000702F00002DE9FF5F9A46934600251046E1
:1018C000DDF844900E9F139CFEF79EFC06B2009834
:1018D000FEF79AFC0198FEF797FCBBF1000F1FD0B2
:1018E00006F111001FFA80F807B10225109868B1BF
:1018F00045F00405FEF788FCC7B24846FEF784FCB5
:10190000C11901EB0800001D1FFA80F80F9870B193
:10191000012807D0022808D0022004B0BDE8F09FBB
:101920000120FAE745F00C0501E045F01405129896
:1019300008B145F02405009860B3019850B345F014
:10194000C0070098FEF760FC05460198FEF75CFCB6
:10195000291801EB0800001D85B229462046FFF733
:1019600042FF2068C0B12946FEF727FCD4E90030C9
:10197000411C102261601A54D4E900010144681F1F
:10198000FFF71EFF00B2002808DA2046FFF70AFF23
:101990000520C2E70320C0E70420BEE76168236892
:1019A0000844411C616000221A54D4E90030421CF2
:1019B000042162601954D4E90050421C4D23626036
:1019C0002B54D4E90050421C626051232B54D4E9BB
:1019D0000030451C542265601A54D4E90050431C61
:1019E00063602A54D4E90030421C62601954D4E97F
:1019F0000020411C61601754D4E90030411C4FEABB
:101A00001A2261601A54D4E90030421C626003F863
:101A100000A0D4E90030411C320A61601A54D4E9B4
:101A20000020411C61601654D4E90001084432468C
:101A30005946FEF7F0FB606830446060780736D5A1
:101A4000B9F1000F01D10FF2D8091098FEF7DCFBB5
:101A500085B2D4E90030411C2A0A61601A54D4E9E5
:101A60000020411C61601554D4E9000108442A4655
:101A70001099FEF7D0FB6068284460604846FEF786
:101A8000C3FB85B2D4E90030411C2A0A61601A54B4
:101A9000D4E90020411C61601554D4E900010844D8
:101AA0002A464946FEF7B7FB60682844606038065E
:101AB00018D50098FEF7A8FB85B2D4E90030411C88
:101AC0002A0A61601A54D4E90020411C616015544F
:101AD000D4E9000108442A460099FEF79CFB60689F
:101AE00028446060780618D50198FEF78DFB85B212
:101AF000D4E90030411C2A0A61601A54D4E900205C
:101B0000411C61601554D4E9000108442A4601993A
:101B1000FEF781FB6068284460600020FDE600005D
:101B2000000000002DE9FF5F8B46DDE90EA24FF0BB
:101B30000005119C99465FEA0008294608D101205A
:101B400004B0BDE8F09F232817D02B2815D06D1CBA
:101B50001BF805000028F6D141F030070AB147F024
:101B6000010705EB0906B61C5FEA0A000DD0012843
:101B700005D0022806D00320E2E70220E0E747F084
:101B8000020701E047F00407B61CF11C2046FFF7EE
:101B90002AFE2068A0B1F11CFEF70FFBD4E900205B
:101BA000411C61601754D4E9000101443046FFF73D
:101BB00007FE002806DA2046FFF7F4FD0520BFE700
:101BC0000420BDE7616823680844411C2A0A61605B
:101BD0001A54D4E90020411C61601554D4E9000175
:101BE00008442A465946FEF716FB6068BAF1000F12
:101BF000284460600BD02368411C4FEA18226160C2
:101C00001A54D4E90030421C626003F80080029844
:101C100050B1D4E9000108444A460299FEF7FBFAA4
:101C2000616801EB09006060002089E71FB50020B2
:101C300001AC0122069B009084E80D000B46024691
:101C400004A10A20FFF76EFF002800D0012004B095
:101C500010BD0000247379732F796A56755A5A3370
:101C60004263622F796978692F7468696E672F7093
:101C7000726F70657274792F706F7374000000005A
:101C8000F0B50446002001235D05106012E0275CDA
:101C9000166807F07F0707FB03661660265C3606AA
:101CA00001D4401CF0BDDB01AB4202D36FF0010058
:101CB000F0BD401C8842EADB4FF0FF30F0BD2DE95B
:101CC000F8430E4607461D4690462F21801DFEF71D
:101CD00091FA0021009150B3441C6A460421781CFB
:101CE000FFF7CEFF252001F019F8306008B3252159
:101CF000FEF763FA242221463068FEF745FA009881
:101D000024342C3880B22880401C01F007F8C8F831
:101D1000000080B12988491CFEF74FFA2A88214625
:101D2000D8F80000FEF730FA0020BDE8F883012063
:101D3000FBE70220F9E7306800F076FF0320F4E7C4
:101D40004178022901D001207047817819B1012919
:101D500001D0FF207047C0787047000038B50446B6
:101D60000078FF210009421E0E2A01D3084638BD23
:101D70000328FCD1002000906A460421601CFFF774
:101D80007FFF20440099401C022907D32278D20704
:101D900004D1028852BA921C8A4201D9FF2038BD70
:101DA00004A1801CFEF714FA08B10F2038BD0320EF
:101DB00038BD000024637265710000002DE9F04118
:101DC00086B0002000900190029003903548816910
:101DD00041F040018161816901F040010491816914
:101DE00041F004018161816901F00401049181697C
:101DF00041F00801816180692B4F00F008000490D8
:101E0000012220213846FEF726FE284E002202211C
:101E10003046FEF720FEDFF8988001222021404660
:101E2000FEF719FE1C20009022480124CDE9010490
:101E300069463846FEF70EFD2025CDE90054029490
:101E4000694638460394FEF705FD02210320CDE9DB
:101E50000210CDE9001469463046FEF7FBFCCDE9DF
:101E600000540294694640460394FEF7F3FC0022B6
:101E700005210820FEF760FE0820FEF74FFE002235
:101E800005210920FEF758FE0920FEF747FE002233
:101E900005210A20FEF750FE0A20FEF73FFE06B09D
:101EA000BDE8F08100100240001801400008014028
:101EB000000C01400000211010B586B00024174826
:101EC00000940194029403940494134905940160CE
:101ED0004721C0E901144FF6FF71C0E903144461C2
:101EE0008461FFF719F908B1FEF7D1FB4FF4805078
:101EF000009069460948FFF783F908B1FEF7C7FB70
:101F0000049404A905480594FFF7C8F8002801D0F7
:101F1000FEF7BDFB06B010BD002C014028000020DC
:101F20000C4810B50A4901604FF4E13141600021CD
:101F300081600C22C160C0E904128161C161FFF7B8
:101F400005FB002803D0BDE81040FEF7A0BB10BD84
:101F500000380140700000200C4810B50A490160AB
:101F60004FF4E1314160002181600C22C160C0E981
:101F700004128161C161FFF7E9FA002803D0BDE8CE
:101F80001040FEF784BB10BD00480040B8000020A0
:101F9000FEE7000030B5C9B005465C220B4932A807
:101FA000FEF7F2F80A4832A903780A480278684630
:101FB00000F0F4FA6846FEF727F984B22246694633
:101FC0002846FEF7E1F849B0E0B230BDCC2E00085B
:101FD0001100002010000020FEE7000030B58BB09B
:101FE000002106A80991CDE9041001240691CDE94C
:101FF0000041079108910291039123020FA2114918
:1020000011A0FFF757FCB0B9079881B20698FEF708
:10201000FFFAFA20FEF71EFA050009D0FFF79EFE30
:10202000022805D12846FFF78BFE002800D800249F
:1020300006A8FFF7B7FB0BB0204630BD7969786979
:1020400000000000502E0008796A56755A5A334233
:1020500063620000F0B5074600208FB0044604908C
:1020600005900290039000900190ADF82400064680
:102070003846FFF773FE0546042820D00F2D03D005
:10208000FEF7DAF90FB0F0BD09AB6A4601A9384690
:10209000FFF715FE040004D0FEF7CEF9601CF1D066
:1020A0000FE0DDE9001002AAFFF7C6FB38B903987C
:1020B00081B20298FEF7ACFA02A8FFF773FBFEF7B5
:1020C000BBF97D210098FEF795F878B1641C0DD01E
:1020D0000BAA401C02E09155401C761C0178A1F12E
:1020E0003003092BF7D91046FEF7A9F80F2D01D0C0
:1020F000032DC7D1019800F097FD009800F094FDE2
:10210000C0E7000030B5A7B00020239024902590B0
:1021100004462690802101A8FEF74FF801A8FFF79A
:1021200039FF05001ED023A8009005230022294670
:102130000DA0FFF77BFD002814D101A8AC4209DAFD
:10214000015DDDE92323D1542499491C641C24B288
:102150002491F3E7249881B22398FEF759FA23A833
:10216000FFF720FB27B030BD7969786900000000D7
:1021700070477047FEF77ABC30B58FB028216846AB
:10218000FEF71BF814210AA8FEF717F8012108042E
:10219000CDE900100024029402250491CDE90750F6
:1021A0004FF4E01009906846FEF7D4FD08B172B60E
:1021B000FEE70F20CDE90A054FF48060CDE90C4021
:1021C00002210AA80E94FEF7E9FC002801D072B69D
:1021D000FEE70FB030BD70470148FEF7DFBF0000DB
:1021E00028000020F0B50268204C214D214E224FDE
:1021F000224B4FF0804CA04209D0984207D0604556
:1022000005D0A84203D0B04201D0B84204D122F098
:10221000700E4A6842EA0E02A04209D0984207D0E6
:10222000604505D0A84203D0B04201D0B84203D1E6
:1022300022F44075CA682A434D6922F080022A437D
:1022400002608A68C2620A688262A04201D0984233
:1022500001D109690163012141610169C90703D005
:10226000016921F001010161F0BD0000002C014075
:102270000004004000080040000C00400034014011
:1022800010B5846842EA032224F47F440A432243BF
:10229000826010BD826822F070020A4342F007019A
:1022A0008160704710B5036A046A24F00104046277
:1022B000846924F0F00444EA021423F00A020A4379
:1022C0008461026210BD10B5036A046A24F0100430
:1022D0000462846923F0A00324F4704444EA0232C7
:1022E00043EA01118261016210BD10B5406A00210C
:1022F000C185C184FEF7F3FF10BD01680C3151E8C0
:10230000002F22F4907241E80023002BF5D10168E0
:10231000143151E8002F22F0010241E80023002B84
:10232000F5D1016B012909D101680C3151E8002F69
:1023300022F0100241E80023002BF5D1202180F883
:10234000421000210163704708B590F8421022291D
:1023500001D0022008BD82684FF480539A4201D117
:10236000016921B1816A9A421BD04AB10AE0026830
:10237000816A5268C2F308020A80816A891C08E0F7
:10238000026972B10268526802F07F020A70816AC3
:10239000491C8162C18D491E0904090CC18503D005
:1023A0001BE002685268F1E70168CA6822F0200267
:1023B000CA600168CA6822F48072CA6001684A690A
:1023C00022F001024A61202180F84210002141637D
:1023D000026B012A03D0FFF761F9002008BD0163F9
:1023E00001680C3151E8002F22F0100241E800236F
:1023F000002BF5D101680A68D20602D50A6849683F
:102400000091818DFEF76AFFE7E7000070B5044692
:1024100000680169E26821F44051114301612169BA
:10242000A0680843616908432168CA6841F20C63E7
:102430009A430243CA6020684169A26921F440714D
:10244000114341611E492068884202D1FEF74CFCCD
:1024500001E0FEF739FC00EBC00101EB00126068FF
:1024600064218000B2FBF0F3B3FBF1F36FF01806C8
:102470007343B2FBF0F5B2FBF0F605EB83053223B4
:1024800003EB0515B5FBF1F5B6FBF1F605F0F0052C
:1024900005EB0615B2FBF0F6B2FBF0F0B0FBF1F085
:1024A0006FF01802504306EB800003EB0010B0FB06
:1024B000F1F0216800F00F002844886070BD000032
:1024C0000038014081628285C28500214164222159
:1024D00080F84210016921B10168CA6842F4807233
:1024E000CA6001684A6942F001024A610068C16835
:1024F00041F02001C160002070472DE9F843984663
:1025000017460D460446089E24E0701C22D0FEF7B4
:10251000A7FAA0EB0800B0421AD8CEB12068C16873
:10252000490717D5802D15D0402D13D00168C94318
:1025300009070FD401680025406800902046FFF786
:10254000DCFE0820606484F840500120BDE8F88378
:102550000320FBE72068006835EA000004D0002073
:10256000B842D2D00020F1E70120F9E70148FEF798
:10257000B7BE0000B8000020FEE700000FB4054B16
:1025800010B503A9044A029800F040F810BC5DF8A9
:1025900014FB00000D2C0008180000200FB4084B9D
:1025A00010B504A902AA039800F030F8044602A965
:1025B000002000F05CFA204610BC5DF814FB00001F
:1025C0006F2A00080907090E002804DB00F1E0204B
:1025D00080F80014704700F00F0000F1E02080F850
:1025E000141D7047004870472400002002E008C80E
:1025F000121F08C1002AFAD170477047002001E07D
:1026000001C1121F002AFBD1704700002DE9FF4FC6
:102610008DB00F460546002606E025280BD0DDE9E3
:102620000F1290476D1C761C28780028F5D111B048
:102630003046BDE8F08F0024A246A1460122EC49B5
:1026400000E0044315F8013F203B02FA03F0084282
:10265000F7D128782A2810D06FF02F022878A0F11F
:102660003001092914D80AEB8A0102EB410144F038
:10267000020400EB010A6D1CF0E701CF5FEA000ADB
:1026800003D544F40054CAF1000A44F002046D1C5E
:1026900028782E2817D115F8010F44F004042A28B1
:1026A0000ED06FF02F022878A0F1300109290AD846
:1026B00009EB890102EB410100EB01096D1CF2E716
:1026C00057F8049B6D1C28786C280FD006DC4C282A
:1026D00017D068280DD06A2814D104E0742810D0CF
:1026E0007A280FD10DE044F400140AE044F4801479
:1026F00001E044F440146978814202D104F5801469
:102700006D1C6D1C2A786E2A1FD00CDC632A31D018
:1027100004DC002A8BD0582A11D1A3E0642A68D0A7
:10272000692A0CD165E0732A2ED004DC6F2A73D09D
:10273000702A04D19BE0752A6FD0782A6ED010469B
:10274000DDE90F129047761C50E1C4F302500228D5
:1027500006D0032809D0042801CF09D0066045E13E
:1027600001CFF117C0E9006140E101CF06803DE1F2
:1027700006703BE117F8040B8DF8000000208DF87F
:102780000100EB46012003E057F804BB4FF0FF3097
:1027900061074FF0000102D40DE008F10101884605
:1027A00049450FDA8045F8DB1BF808100029F4D101
:1027B00008E008F1010188468142FADB1BF80810A5
:1027C0000029F6D1DDE90F23AAEB08008146214656
:1027D00000F036F9304400EB080604E0DDE90F12A2
:1027E0001BF8010B9047B8F10108F7D22146484683
:1027F000F7E00A21C4F302534FF0000B0891022BBB
:1028000004D001CFC117032B09D00AE0FF1D27F028
:102810000707F7E8020108E032E01FE020E000B21D
:10282000C117042B01D140B2C117031E71F100037F
:1028300007DA4FF0000CD0EB0C006CEB01012D23FC
:1028400002E0230504D52B238DF82430012303E077
:10285000E30701D02023F7E7984658E00A2110E06B
:1028600010210EE010204FF0000B08900CE010211A
:102870004FF0000B44F004044FF00809089103E006
:1028800008214FF0000B0891C4F30253022B04D02F
:1028900001CF0021032B06D006E0FF1D27F007071C
:1028A000F7E8020103E080B2042B00D1C0B24FF080
:1028B000000823072BD5702A07D0DDF820C08CF044
:1028C000100C5CEA0B0C05D00EE040238DF8243090
:1028D000012308E050EA010306D030238DF82430AC
:1028E0008DF8252002239846DDF820C08CF0080CD6
:1028F0005CEA0B0C0BD150EA010301D1630706D54A
:1029000030238DF824304FF00108A9F10109582A2D
:1029100004D038A20B9208AA0A920BE03AA2F9E777
:102920005B46089AFDF798FC0B9B9B5C0A9A521E2B
:102930000A92137050EA0102F2D10A98ADEB00003E
:1029400000F1200B600702D524F4803401E04FF041
:102950000109D94502DDA9EB0B0000E0002000EBE6
:102960000B0141440890AAEB010AE00306D4DDE91B
:102970000F232146504600F063F806444FF000094B
:1029800008E009A911F80900DDE90F12904709F1E3
:102990000109761CC145F4DBE0030CD5DDE90F230A
:1029A0002146504600F04CF8064404E0DDE90F12E1
:1029B00030209047761C0899481E08900029F5DCC5
:1029C00008E00A980A990078491C0A91DDE90F127B
:1029D0009047761CBBF10001ABF1010BF1DC214605
:1029E0005046DDE90F2300F019F806446D1C1BE684
:1029F00009280100303132333435363738396162D5
:102A00006364656600000000303132333435363798
:102A10003839414243444546000000002DE9F04169
:102A2000044600251E461746880404D405E03946AE
:102A30002020B0476D1C641EF9D52846BDE8F08102
:102A40002DE9F041044600251E469046C80301D5F5
:102A5000302700E02027880404D505E041463846A9
:102A6000B0476D1C641EF9D52846BDE8F0810A68A0
:102A7000531C0B60107070472DE9F041002425466F
:102A80004FF40066124F04E0641CE4B2012000F031
:102A90007BF931463846FDF7D9FF10B1642CF3D3EA
:102AA0000FE0642C0DD2002404E0641CE4B2012089
:102AB00000F06AF931463846FDF7C8FF28B1642CAA
:102AC00000D301252846BDE8F081642CEDD3F8E75A
:102AD000002001400E4800B5816985B041F4807145
:102AE00081618069694600F4807004904FF4006051
:102AF00000901120019001200290032003900548CE
:102B0000FDF7A8FE00F06AF8FFF7B6FF05B000BDBC
:102B1000001002400020014070B500244FF4006511
:102B2000134E04E0641CE4B2012000F02DF92946A4
:102B30003046FDF78BFF08B1642CF3D3002404E08A
:102B4000641CE4B2012000F01FF929463046FDF76D
:102B50007DFF08B9642CF3D3282000F015F929462D
:102B60003046FDF773FF002800D0012070BD000043
:102B7000002001402DE9FC478846814600F02EF8F0
:102B8000FFF77AFF10B10120BDE8FC8700246F46F3
:102B9000002005464006060EFFF7BEFF6D1C3043C1
:102BA000EDB2082DF6D33855641CE4B2052CEFD3F2
:102BB0009DF800109DF801009DF803300A189DF85B
:102BC000020003441A449DF804309A4203D188F865
:102BD000001089F800000020D6E7000070B50A4D0B
:102BE0004FF40064002221462846FDF734FF1420EC
:102BF000FDF70AFE012221462846FDF72CFFBDE81D
:102C000070401E2000F0C0B80020014008B502232B
:102C10008DF80000012269460248FEF75FFD0020A2
:102C200008BD00007000002010B5002821D0114B15
:102C30000022001F196803E0814203D80A46496850
:102C40000029F9D152B11368841A9C4204D100685A
:102C500018441060104602E0506000E0186039B17E
:102C600002680B1A934203D10B681A440260496848
:102C7000416010BD1C0000200024FDF7FFFEFFF79F
:102C80007BFAFFF79BF8FFF74BF9FFF715F9FFF712
:102C900063F9FFF7A1FA012219491A48FEF7F0FC7F
:102CA000FFF718FFFDF7F6FB4FF4FA7502E0284630
:102CB000FDF7AAFDFFF792F90028F8D1124E134F45
:102CC0000525641CA4B2B4FBF5F005FB104040B927
:102CD0000D490E48FFF74EFF327839780CA0FFF708
:102CE0004DFC322C04D3FFF70DFA0024FDF7A4FBB2
:102CF0000020FDF7AFFB0028E3D0FFF7ABF9E0E7DA
:102D000000010020B8000020110000201000002069
:102D100025640D0A2C25640D0A000000F0B50B3067
:102D2000154D20F007010024144A0FE003688B4280
:102D30000BD38B4205D95E1A43184768C3E9006775
:102D400000E04368136002C004E0021D1068002820
:102D5000ECD12046002802D1286808B10020F0BD3F
:102D6000064A07481060074A121A22F00702C0E913
:102D7000002401202860D7E7200000201C0000204C
:102D80008401002080030020044900220B685A625D
:102D900009684A6A8242FCD370470000280000207C
:102DA000010202030405060708090A0B0C0D0E0FA9
:102DB00010100000000000000000010203040607DC
:102DC00008090000000001020304004040404040A8
:102DD00040404040414141414140404040404040EE
:102DE0004040404040404040404040050202020216
:102DF000020202020202020202020220202020201D
:102E000020202020200202020202020290909090D4
:102E100090901010101010101010101010101010B2
:102E20001010101010100202020202028888888816
:102E30008888080808080808080808080808080812
:102E4000080808080808020202024000CB2D00080A
:102E500076657273696F6E3D323031382D31302DA9
:102E60003331267265733D70726F647563747325B8
:102E70003246796A56755A5A33426362253246643D
:102E80006576696365732532467969786926657464
:102E90003D32383130333533373634266D6574681A
:102EA0006F643D6D6435267369676E3D36633454D7
:102EB0005068486E6B78784171615157384A74593F
:102EC0005A77253344253344000000007B2269648F
:102ED000223A22313233222C2276657273696F6E68
:102EE000223A22312E30222C22706172616D7322BF
:102EF0003A7B2274656D7065726174757265223AF1
:102F00007B2276616C7565223A25647D2C2268757A
:102F10006D6964697479223A7B2276616C756522E9
:102F20003A25647D7D7D0000482F000800000020C8
:102F300028000000EC250008702F00082800002061
:102F400058070000FC2500080100000010000000E8
:102F50000000000000127A000000000000000000E5
:102F60000000000000000000000000000000000061
:0400000508000131BD
:00000001FF
